:100000000C9437010C9454010C9454010C94540139
:100010000C9454010C94A4010C9454010C945401BC
:100020000C9454010C9454010C9454010C945401FC
:100030000C9454010C9454010C9454010C945401EC
:100040000C94310F0C9454010C9454010C945401F1
:100050000C945E0E0C941C0E0C9454010C945401E0
:100060000C9454010C9454010C9454010C945401BC
:100070000C9454010C9454010C9454010800000099
:10008000BE922449123EABAAAA2ABECDCCCC4C3E8D
:1000900000000080BEABAAAAAA3E00000000BF007C
:1000A0000000803F0000000000084178D3BB438778
:1000B000D1133D190E3CC3BD4282AD2B3E68EC828C
:1000C00076BED98FE1A93E4C80EFFFBE01C4FF7F11
:1000D0003F000000000005A84CCDB2D44EB9383620
:1000E000A9020C50B9918688083CA6AAAA2ABE008B
:1000F0000000803F4C697665733A202569005363A0
:100100006F72653A20256C750050726573732061BB
:1001100020627574746F6E20746F207374617274D2
:1001200020616761696E0047414D45204F56455239
:10013000004C697665733A203000435353453230A2
:1001400031302F373230312070726F6A656374201E
:10015000627920416C6578205061746170616E2015
:100160002873343437393239323529004173746594
:10017000726F69647300E101DE01DA01D601D20118
:10018000CE01CA01C601C201BE0150024C024802A2
:10019000440240023C023802340231022D0229029C
:1001A000250220021C02180214020F020B02070291
:1001B0000202FE01F901F401EF01EA01E501649296
:1001C000927D6C92926D809EA0C17C92924DE4A231
:1001D000A29D182848FF4492926D468A926342FE7F
:1001E000037C92A27D868A92A2C3E0100E10E1C623
:1001F000281028C7FC021C02FDF8040204F9FC02C6
:1002000002FD8080FE80816492924DFE9098677C12
:10021000828A7C03FE9090617C82827DFE2010FFAA
:10022000FE403040FFFE020203FE1028C704020217
:10023000FD82FE83FE1010FF7C82925DFE90908115
:10024000FE929283FE82827D7C828245FE92926D36
:100250007E90907F1B5B3F32356C001B5B4B001B1D
:100260005B324A001B5B25643B2564480000112477
:100270001FBECFEFD8E0DEBFCDBF11E0A0E0B1E000
:10028000E2E6FFE202C005900D92A633B107D9F76E
:1002900022E0A6E3B1E001C01D92A83AB207E1F75F
:1002A0000E94600C0C94AF170C940000FC010FB678
:1002B000F8946091A4027091A5028091A602909199
:1002C000A7020FBE309721F06083718382839383EE
:1002D0000895E8E6F0E0808182608083D99AECE6B8
:1002E000F0E080818F6080831092360108958091C4
:1002F000360118163CF5809137016FB7F89490914C
:1003000036019230B4F021E030E091E0F901E95C8F
:10031000FE4F4081F901EA5CFE4F40839F5F292F29
:1003200030E040913601042E000C550B24173507A0
:100330006CF39091360191509093360166231CF432
:10034000789408958FEF08951F920F920FB60F9231
:1003500011242F933F934F935F936F937F938F93CA
:100360009F93EF93FF9343B14F7080E090E0642F31
:1003700070E020913601243004F59B01082E02C064
:10038000359527950A94E2F720FF17C020913B018D
:1003900030E0082E02C0359527950A94E2F720FD3B
:1003A0000CC0E091360121E02E0F209336010E2E75
:1003B000000CFF0BE95CFE4F8083019684309105B1
:1003C000C1F640933B01FF91EF919F918F917F91F7
:1003D0006F915F914F913F912F910F900FBE0F90B2
:1003E0001F90189520E1829FC00111246F70862B09
:1003F00040914901042E000C550B14161506C4F447
:1004000090914F01891749F090E00AC0F901E15B32
:10041000FE4F2081821304C001C090E0892F08950F
:100420009F5F292F30E02417350784F38FEF08955D
:100430008FEF089520E1829FC00111246F70862BF9
:1004400040914E01042E000C550B14161506C4F4F1
:1004500090914A01891749F090E00AC0F901E65BE2
:10046000FE4F2081821304C001C090E0892F0895BF
:100470009F5F292F30E02417350784F38FEF08950D
:100480008FEF089590E020914901022E000C330B6C
:10049000821793076CF4462FFC01E15BFE4F8081CD
:1004A000982F92959F7067E0691B8F700E94870656
:1004B0000895CF9388230CF1909149018917ECF4AA
:1004C000C82F60E00E9442028C2FCC0F990B409104
:1004D0004901242F042E000C330B215031098217BF
:1004E000930744F4F901E15BFE4F2081FC01E15BDD
:1004F000FE4F2083415040934901CF91089590E0F1
:1005000020914E01022E000C330B821793076CF4DE
:10051000462FFC01E65BFE4F8081982F92959F70DD
:1005200067E0691B8F700E9487060895CF93882328
:1005300024F190914E01891704F5C82F60E00E94C4
:100540007F0281E08C0F282F30E060914E01462F12
:10055000062E000C550B2417350764F4F901E65BF1
:10056000FE4F9081319790838F5F282F30E02417C2
:100570003507A4F3615060934E01CF9108958091A7
:100580006301909164018230910589F02CF4009709
:1005900091F0019771F008958330910531F004973F
:1005A00059F482B18C6382B9089515980895129810
:1005B000089514980895139808950E94F00E0E94CB
:1005C000890C672B682B692B39F46CE070E08BE0A9
:1005D00090E00E94DF0E1CC00E94890C6F5F7F4F6D
:1005E0008F4F9F4F0E94CC100E94B7110E940D1098
:1005F0009B01AC0160E070E080E491E40E94A00FF8
:100600000E949610DC01CB016CE070E00E94DF0ECE
:100610000E94890C9F938F937F936F938EEF90E04E
:100620009F938F930E949F146DE070E08AE090E0AA
:100630000E94DF0E809164018F93809163018F93FC
:1006400084EF90E09F938F930E949F140E94020F6B
:100650000E94BF028DB79EB70A960FB6F8949EBF50
:100660000FBE8DBF0895CF930E94DD020E940A1431
:10067000DC01CB0187709927AA27B078BB2354F4FB
:100680000197A109B109886F9F6FAF6FBF6F019686
:10069000A11DB11DC82F6FE00E94F2018F3F31F7FD
:1006A00080914901E1E0E80FE09349010E2E000C32
:1006B000FF0BE25BFE4F90E1C99F900111242F6078
:1006C000208360EF0E944202CF910895CF938091E2
:1006D0004E018430DCF562E0809165010E941A02CF
:1006E0008F3FB1F50E942A07C091650162E08C2F0F
:1006F0000E94F2018F3FA9F00E9459020E94330329
:100700000E943B0781E090E00E94740C809165019B
:1007100062E070E0082E000C990B0E94450B81E00E
:1007200018C080914E0191E0980F90934E01E82FF0
:10073000F0E0E65BFE4F90E1C902900111242260D7
:1007400020836FE00E947F0281E003C080E001C04F
:1007500080E0CF910895EF92FF921F93CF93DF93A4
:1007600010E047C0E12E012E000CFF08F701E65B08
:10077000FE4F8081682F6F70C1E0C60FC03121F439
:10078000812F0E94960235C0D82FD295DF706C2F32
:100790008D2F0E94F2018F3FC1F0812F0E9496029F
:1007A0006C2F8D2F0E94F2010E9459020E943B077C
:1007B00081E090E00E94740C0E9433036C2F70E083
:1007C0008D2F90E00E94450B14C060E0812F0E94A5
:1007D0007F02F701E65BFE4F20E1D29FC0011124AA
:1007E0006C2F6F70682B60836FE0812F0E947F02F7
:1007F0001F5F80914E0118170CF4B4CFDF91CF9199
:100800001F91FF90EF90089581E020916301309156
:100810006401121613060CF480E008951F93CF9321
:10082000DF93182F909165018FEF890F482F082EC5
:10083000000C550B292F092E000C330B2F5F3F4F57
:1008400024173507E4F0D8E0D91BC82F883028F4E6
:10085000412F6D2F80E00E94870681E08C0F9091E0
:100860006501D150482F082E000C550B292F092E59
:10087000000C330B2F5F3F4F2417350734F767E029
:10088000691B412F81E00E948706DF91CF911F9164
:100890000895CF93C82F80E00E940E04C11140C07C
:1008A00080916501882309F47EC060E082500E9437
:1008B000F2018F3F99F00E94490880916301909165
:1008C00064010197909364018093630180916501B5
:1008D00060E082500E94F2010E94590280916501FD
:1008E00061E081500E94F2018F3F99F00E94490817
:1008F00080916301909164010197909364018093CA
:1009000063018091650161E081500E94F2010E94C3
:10091000590280916501815080936501C1E048C012
:10092000C13009F042C080916501873009F43FC0B1
:1009300060E08E5F0E94F2018F3F99F00E944908AB
:100940008091630190916401019790936401809379
:1009500063018091650160E08E5F0E94F2010E9458
:1009600059028091650161E08F5F0E94F2018F3F23
:1009700099F00E9449088091630190916401019768
:1009800090936401809363018091650161E08F5FC2
:100990000E94F2010E945902809165018F5F80934D
:1009A0006501C1E005C0C0E003C0C0E001C0C0E017
:1009B0000E94DD028FED0E940E048C2FCF910895CE
:1009C0007F928F929F92AF92BF92CF92DF92EF92DF
:1009D000FF920F931F93CF93DF93E12CF12CB0C0C4
:1009E0006C2F892D0E94F2018F3F09F49BC00E9459
:1009F00059026C2F892D0E941A028F3F99F00E9494
:100A00003B076C2F892D0E941A020E94960281E0FA
:100A100090E00E94740C0E943303BE01C7010E9443
:100A2000450B80C0602F892D0E941A028F3F99F0DC
:100A30000E943B07602F892D0E941A020E94960295
:100A400081E090E00E94740C0E943303B801C7015A
:100A50000E94450B67C080916501082E000C990B20
:100A60008E159F0519F4C230D10569F08C159D05CE
:100A700021F4C130D105A9F406C08A159B0589F47B
:100A8000C130D10571F480916301909164010197A7
:100A900090936401809363010E9449080E9433038C
:100AA00041C0E0914901EF5FE0934901209751F087
:100AB0000E2E000CFF0BE25BFE4F802F8F708729FC
:100AC000808327C00E940A14DC01CB01877099271C
:100AD000AA27B078BB2354F40197A109B109886F04
:100AE0009F6FAF6FBF6F0196A11DB11D882E6FE084
:100AF0000E94F2018F3F31F7E09149010E2E000C68
:100B0000FF0BE25BFE4F20E1829EC00111248F604B
:100B100080838091490160EF81500E9442028FEDF5
:100B20000E940E0421960F5F1F4FC031D10509F0BE
:100B300057CF8FEFE81AF80A28E0E216F10499F08F
:100B40007E2C770C770C770C770C0FEF1FEFC0E043
:100B5000D0E09E2C67018FEFC81AD80A570121E018
:100B6000A21AB1083DCFDF91CF911F910F91FF9055
:100B7000EF90DF90CF90BF90AF909F908F907F903D
:100B80000895CF9380914901181684F4C0E060EF76
:100B90008C2F0E944202CF5F2C2F30E080914901C0
:100BA000082E000C990B281739078CF3CF91089564
:100BB000CF9380914E01181684F4C0E06FE08C2F23
:100BC0000E947F02CF5F2C2F30E080914E01082ED3
:100BD000000C990B281739078CF3CF9108954F9289
:100BE0005F926F927F928F929F92AF92BF92CF92BD
:100BF000DF92EF92FF920F931F93CF93DF9300D07A
:100C000000D0CDB7DEB783E08093650110924E012E
:100C10001092490184E090E0909364018093630115
:100C2000CE0101960E945601CB010E94B4130F2EF3
:100C3000FFE4AF2EF1E0BF2EF02D0F2EF3E68F2E46
:100C4000F1E09F2EF02D0F2EFDE04F2E512C612C48
:100C5000712CF02D0E940A146B017C0127E0C22246
:100C6000DD24EE2420E8F222FF2084F481E0C81A7B
:100C7000D108E108F108E8EFCE2ADD24DA94ED2C62
:100C8000FE2CFFEFCF1ADF0AEF0AFF0A0E940A14B8
:100C9000A30192010E94441313E0160F612F8C2DC3
:100CA0000E94F2018F3FB1F620E1C29EB0011124F3
:100CB0001F70162BF50111935F01809149018F5F21
:100CC00080934901E815F90529F60E94CA068FEDBF
:100CD0000E940E040E94C1050E94D8050F900F903B
:100CE0000F900F90DF91CF911F910F91FF90EF9098
:100CF000DF90CF90BF90AF909F908F907F906F903C
:100D00005F904F90089580E80E94B10E08951F9360
:100D1000CF93DF938031B0F46830A0F4142FC62F46
:100D2000D82F81E00E94D90E6C2F677080E1689FF8
:100D3000900111248D2F8F70822B0E94D90E812F4C
:100D40000E94D90EDF91CF911F9108950F931F93A9
:100D5000CF93DF93803190F48B01C82F83E00E9402
:100D6000D90E8C2F8F700E94D90EE801085F1F4F9B
:100D700089910E94D90EC017D107D1F7DF91CF9189
:100D80001F910F91089584E00E94D90E82E00E9485
:100D9000D90E08958FE00E94D90E08950E9483060F
:100DA0000E94690140E060E07BE480E090E00E9406
:100DB000C90D0E940B0F78948FEF87B980E4809360
:100DC0007C0086E880937A008AB18AB90895CF9230
:100DD000DF92EF92FF92549A9C0140E050E060E471
:100DE00072E48FE090E00E94221369017A01B90158
:100DF00080E090E00E94CC1020E030E048E452E433
:100E00000E940F1220E030E048EC52E40E942410CF
:100E10000E949D1021E0C21AD108D0928900C09290
:100E200088006115710529F410928B0010928A00D8
:100E300006C06150710970938B0060938A0083E251
:100E4000809380008AE180938100FF90EF90DF9093
:100E5000CF9008954B9B0EC088EB9BE00E94E70665
:100E60000E94230F60937E0170937F018093800125
:100E70009093810108954B9B0EC080EB94E00E94FB
:100E8000E7060E94230F60937E0170937F01809399
:100E900080019093810108950E94F00E6AE070E055
:100EA0008AE090E00E94DF0E8CE691E09F938F93A2
:100EB0000E949F146CE070E08AE090E00E94DF0ED8
:100EC0008AE391E09F938F930E949F140E94CA0629
:100ED0000F900F900F900F9060EF81E291E00E94D1
:100EE000920C0DC02FE789EA93E02150804090409A
:100EF000E1F700C000000E9477018F3F29F40E94B3
:100F0000A10C8111EFCFE8CF0895CF93DF930E941A
:100F1000EF050E94F00E0E946B0C0E94DD020E9401
:100F200077010E94170EC1E0D0E0D0937D01C093FD
:100F30007C010E94230F6093760170937701809368
:100F400078019093790110926F0110926E011092C6
:100F50008501109284011092830110928201D09336
:100F60006D01C0936C01DF91CF9108958F929F9294
:100F7000AF92BF92CF92DF92EF92FF92CF93DF9327
:100F80000E94230F6B017C01C0917C01D0917D01F7
:100F9000BE010D2E000C880B990B0E94CE102DEC7B
:100FA0003CEC4CE45FE30E9424100E947C124B0155
:100FB0005C01C701B6010E94CC106B017C0120E0EE
:100FC00030E048E453E4C501B4010E940F129B01D4
:100FD000AC0160E070E086E993E40E94A00F9B0101
:100FE000AC01C701B6010E94A00F6B017C016091AA
:100FF00076017091770180917801909179010E943A
:10100000CC109B01AC01C701B6010E94B21188232C
:101010005CF14B9B16C0C230D10551F0C330D105F5
:1010200061F0219771F484EF91E00E94E70609C016
:101030008EE591E00E94E70604C088EC90E00E94F3
:10104000E70680917C0190917D01019690937D014E
:1010500080937C010E94230F609376017093770147
:10106000809378019093790180917C0190917D012A
:10107000049721F410927B0110927A01DF91CF91B5
:10108000FF90EF90DF90CF90BF90AF909F908F90A8
:10109000089581E090E090937B0180937A01909392
:1010A0007D0180937C010895FF920F931F93CF934E
:1010B000DF93F82EEB01042F17E0181B612F8C2F04
:1010C0000E94870668E06F19402F8C2F0E948706C8
:1010D00066E06F19402F8C2F0E948706402F612FEA
:1010E0008C2F8F5F0E948706CE0101978330910578
:1010F00024F0402F612F0E948706DF91CF911F912E
:101100000F91FF900895CF92DF92EF92FF920F938D
:101110001F93CF93DF93EC018B010E94230FDC011F
:10112000CB010A97A109B109C0906601D09067016F
:10113000E0906801F09069018C159D05AE05BF0532
:1011400008F443C080916C0190916D01823091054B
:1011500081F01CF4019739F021C08330910579F0BA
:10116000049799F01BC04CE3B801CE010E945408CB
:1011700015C043E1B801CE010E9454080FC04CE3F2
:10118000B801CE010E94540809C040E0B801CE0168
:101190000E94540810928301109282010E94230F32
:1011A0006093660170936701809368019093690171
:1011B00080916C0190916D01019690936D018093E7
:1011C0006C010E94D8050E94C105DF91CF911F914B
:1011D0000F91FF90EF90DF90CF9008952F923F9264
:1011E0004F925F926F927F928F929F92AF92BF9237
:1011F000CF92DF92EF92FF920F931F93CF93DF93E3
:10120000CDB7DEB767970FB6F894DEBF0FBECDBF80
:1012100081E090E0909375018093740190936B014D
:1012200080936A010E94230F2B013C014B9B19C044
:1012300084EF91E00E94E7064C8A5D8A6E8A7F8A7D
:1012400053014201488A598A6A8A7B8A10E01F82C8
:101250000F2EFCE72F2E312CF02D3E822D82312EC9
:10126000E1C11092750110927401E6CF4B9902C052
:101270008AB11AB88091740190917501892B09F493
:101280008CC00E94230F69837A838B839C83009197
:101290006A0110916B01B801012E000C880B990BAB
:1012A0000E94CE102DEC3CEC4CE85FE30E94241031
:1012B0000E947C126B017C0169817A818B819C8107
:1012C0000E94CC1069837A838B839C8320E030E07A
:1012D00048E453E4C701B6010E940F129B01AC0120
:1012E00060E070E08AE793E40E94A00F9B01AC01EC
:1012F00069817A818B819C810E94A00F6B017C01A6
:101300006C897D898E899F890E94CC109B01AC01DC
:10131000C701B6010E94B21188239CF14B9B31C0DA
:101320000230110589F024F40130110541F01AC092
:101330000330110571F00430110581F013C080E213
:1013400093E00E94E7060EC08CED95E00E94E70650
:1013500009C080ED97E00E94E70604C084EC99E0A4
:101360000E94E70680916A0190916B01019690932B
:101370006B0180936A010E94230F6C8B7D8B8E8B97
:101380009F8B80916A0190916B01059711F04B99A9
:1013900004C010927501109274010E947701182FF9
:1013A0008F3F09F04BC10E94100E882309F459C0E9
:1013B000EEE9F2E0808191810E946114FF81F111D8
:1013C00005C08B3109F434C19FEF0DC02F8121304E
:1013D00029F48B3509F42FC19FEF05C09F8192300E
:1013E00029F4982F8FEF943411F408C09FEF282F21
:1013F0002F7D2C3409F026C11F8201C01F8280E09E
:101400000E9449042EC0803231F41F8201C01F8225
:101410000E94660326C01F82113019F1923409F12F
:10142000112329F0933419F08F7D823521F481E066
:101430000E94490416C08035A1F485B5887F85BD1A
:101440008AB11AB80E94100E8823E1F3EEE9F2E0A7
:10145000808191810E9461148F7D803599F7F3E03E
:10146000F5BD0E94230F6B017C010E9404048111D1
:1014700040C00E94890C69837A838B839C83C70157
:10148000B6010E94CC10688779878A879B87688914
:1014900079898A899B896C507E4F8F4F9F4F0E941C
:1014A000CC106C877D878E879F8769817A818B813D
:1014B0009C810E94CC1026E636E646EE5FE30E9451
:1014C0000F129B01AC016C857D858E859F850E94E6
:1014D000A00F9B01AC01688579858A859B850E9458
:1014E000B211882334F00E94E004C88AD98AEA8ABB
:1014F000FB8A0E94040481110FC0D301C2018C50E9
:101500009E4FAF4FBF4FC816D906EA06FB0620F024
:101510000E94AB03260137010E940404811141C0DF
:10152000D501C401C296A11DB11DC816D906EA068F
:10153000FB06B8F1311006C0ED81FE8180818E7FFF
:10154000808305C0ED81FE81808181608083EAE730
:10155000F0E0808180648083EAE7F0E0808186FDAE
:10156000FBCFE8E7F0E08081918131100FC08D3B27
:10157000F2E09F0720F080E00E9449040EC08C3208
:10158000914058F481E00E94490407C08C52914078
:101590008139914010F00E94660381E038264601AF
:1015A00057010E940404811108C080917A01909132
:1015B0007B01892B11F00E94B6070E94040481115F
:1015C00010C08091820190918301892B51F060912C
:1015D00084017091850180916E0190916F010E944C
:1015E000830880917A0190917B01892BD9F48091B5
:1015F000740190917501892BA9F4D701C601845615
:101600009109A109B10940917E0150917F0160913A
:1016100080017091810184179507A607B70710F024
:101620008AB11AB80E940404882309F41FCE14C09A
:10163000F1E0FF8316CF22E02F8313CF833009F42C
:10164000DECE04C0913409F0DECEE1CE823009F462
:10165000DFCE9FEF8FEFE0CE67960FB6F894DEBF38
:101660000FBECDBFDF91CF911F910F91FF90EF90F3
:10167000DF90CF90BF90AF909F908F907F906F90B2
:101680005F904F903F902F9008950F931F93CF93AB
:10169000DF932091820130918301232BF1F48B01A0
:1016A000EC0181E090E0909383018093820190931C
:1016B0006D0180936C010E94230F6093660170930B
:1016C00067018093680190936901D0936F01C09383
:1016D0006E011093850100938401DF91CF911F91DA
:1016E0000F9108957F928F929F92AF92BF92CF9267
:1016F000DF92EF92FF920F931F93CF93DF93CDB7BB
:10170000DEB728970FB6F894DEBF0FBECDBF6DE0F1
:1017100070E08AE090E00E94DF0E0E94F90E6DE01A
:1017200070E08AE090E00E94DF0E81E391E09F93F9
:101730008F930E949F146EE070E08AE090E00E9418
:10174000DF0E87E291E09F938F930E949F146FE0DA
:1017500070E08AE090E00E94DF0E89E091E09F93C4
:101760008F930E949F1481E090E090937B0180937F
:101770007A0190937D0180937C0119821A821B82E9
:101780001C828FED89838CE38A831D821E821F82D7
:1017900018868FE08D8380EF8E830F900F900F90CF
:1017A0000F900F900F90A12CB12C00E010E0712C45
:1017B0006EC080917A0190917B01892B19F00E9473
:1017C000B60702C08AB11AB82FEF80E792E0215025
:1017D00080409040E1F700C00000003411050CF09B
:1017E00054C078012FE0E22220E8F222FF2054F4D6
:1017F00081E0E81AF10890EFE92AFF24FA942FEF2C
:10180000E21AF20A6501F12C4801E89485F880E1BA
:10181000881A910890E18916910428F10032110587
:101820008CF0C60181709078992324F401978E6F13
:101830009F6F0196E1E0F0E0EC0FFD1FE80FF91F4C
:10184000408112C0C60181709078992324F40197D9
:101850008E6F9F6F0196E5E0F0E0EC0FFD1FE80F43
:10186000F91F408101C0472D6F2D8E2D0E948706E4
:10187000F3942FEFC21AD20A88E0F812CBCF0F5F91
:101880001F4F9FEFA91AB90A02C000E010E00E94A2
:1018900077018F3F09F48DCF28960FB6F894DEBFFD
:1018A0000FBECDBFDF91CF911F910F91FF90EF90B1
:1018B000DF90CF90BF90AF909F908F907F900895D2
:1018C0000E94CE060E944C070E9485070E94EE08E7
:1018D0000E94720BF9CF109286011092870110922C
:1018E00088011092890108954091860150918701E5
:1018F0006091880170918901480F591F611D711D08
:101900004093860150938701609388017093890109
:10191000089560918601709187018091880190916E
:1019200089010895609308019093400180933F01DD
:10193000109242011092410110923E0110923D011D
:1019400008950F931F93CF93DF93CDB7DEB72897FA
:101950000FB6F894DEBF0FBECDBFE0914101F0910C
:101960004201309781F0149110FF06C0109242019D
:101970001092410100E06BC03196F0934201E09378
:10198000410100E064C0E0913D01F0913E013097DB
:1019900009F449C0CF01019690933E0180933D0127
:1019A000E081E1110AC010923E0110923D0180E1F8
:1019B00080933C0100E010E04AC08FE98E0F8A312D
:1019C00070F4F0E0EE0FFF1FE853FF4F8591949104
:1019D000909342018093410100E010E038C08FEB0A
:1019E0008E0F8A3170F4F0E0EE0FFF1FE85FFE4FBC
:1019F00085919491909342018093410100E010E021
:101A000026C080ED8E0F8A3000F5F0E0EE0FFF1F4C
:101A1000EA5EFE4F8591949190934201809341013B
:101A200000E010E014C080913F019091400101E07E
:101A3000009709F000E090933E0180933D011092E1
:101A4000400110923F0110E002C000E010E00E944F
:101A5000C30620910801FE013896CE01019611239C
:101A600014F4208301C01082110F3197E817F90791
:101A7000B1F71982BE016F5F7F4F8FE00E94A6060B
:101A800080913C01882389F0815080933C010023A0
:101A900011F0882311F090E003C091E001C091E0C3
:101AA00081E0992329F080E003C00023A1F3F7CF60
:101AB00028960FB6F894DEBF0FBECDBFDF91CF9151
:101AC0001F910F910895CF93C82F8A3019F48DE09C
:101AD0000E94630D9FB7907802C0992329F18091ED
:101AE0008B018F3FD1F3F894E0918A0181E08E0F52
:101AF00080938A01F0E0E457FE4FC08380918B0110
:101B00008F5F80938B0180918A018F3F11F4109237
:101B10008A01E1ECF0E0808180628083992339F0D2
:101B2000789480E090E005C081E090E002C080E021
:101B300090E0CF91089580919D028823E1F32FB723
:101B40002078F89480918B0230919D0290E0831B65
:101B500091095AF4E0918B0280919D02F0E0E81B1C
:101B6000F109E456FD4F80810AC0E0918B0280911B
:101B70009D02F0E0E81BF109E457FD4F8081909150
:101B80009D02915090939D02222309F0789490E059
:101B9000089510928A0110928B0110928B0210927C
:101BA0009D0210929C0240934301DC01CB01880FFF
:101BB000991FAA1FBB1F880F991FAA1FBB1F9C013B
:101BC000AD01220F331F441F551F60E072E18AE709
:101BD00090E00E944413BA01A9014F5F5F4F6F4F1D
:101BE0007F4FDB01CA011AF40196A11DB11DB59505
:101BF000A7959795879501979093C5008093C4000A
:101C0000E1ECF0E088E18083808180688083EEE908
:101C1000F2E089E091E09383828391838083089549
:101C200090919D0281E0911101C080E00895109291
:101C30008B0210929D0208951F920F920FB60F9281
:101C400011242F938F939F93EF93FF9380918B0198
:101C5000882329F180918A0120918B0190E0821BD9
:101C600091095AF4E0918A0180918B01F0E0E81B20
:101C7000F109E557FD4F90810AC0E0918A018091FA
:101C80008B01F0E0E81BF109E457FE4F9081809151
:101C90008B01815080938B019093C60005C0E1ECCD
:101CA000F0E080818F7D8083FF91EF919F918F91F4
:101CB0002F910F900FBE0F901F9018951F920F92AB
:101CC0000FB60F9211242F933F934F935F936F930F
:101CD0007F938F939F93AF93BF93CF93EF93FF9394
:101CE000C091C60080914301882349F080918B0107
:101CF0008F3F29F060E070E08C2F0E94630D80918F
:101D00009D02803120F081E080939C0218C0CD308C
:101D100009F4CAE0E0918B0281E08E0F80938B0280
:101D2000F0E0E457FD4FC08380919D028F5F809368
:101D30009D0280918B02803111F410928B02FF91F1
:101D4000EF91CF91BF91AF919F918F917F916F91C3
:101D50005F914F913F912F910F900FBE0F901F9069
:101D6000189594B1906B94B92C9A90E59CBD8830ED
:101D700021F0803211F0823019F491E09DBD01C054
:101D80001DBC803269F028F4883071F0803161F038
:101D90000EC0803429F0803851F48CB581608CBD40
:101DA0008CB582608CBD03C08CB581608CBD2C98D5
:101DB00008958EBD0DB407FEFDCF8EB508959F9397
:101DC0008F937F936F9384E692E09F938F930E940B
:101DD0009F140F900F900F900F900F900F900895F9
:101DE0008FE592E09F938F930E949F140F900F9026
:101DF00008958BE592E09F938F930E949F140F901C
:101E00000F90089584E592E09F938F930E949F1412
:101E10000F900F9008951092450110924601109274
:101E200047011092480116BC8CE787BD82E084BD53
:101E300083E085BDEEE6F0E080818260808385B33B
:101E4000827085BB08952FB7F89460914501709119
:101E50004601809147019091480122230CF4789427
:101E600008951F920F920FB60F9211242F933F9354
:101E70004F935F936F937F938F939F93AF93BF9392
:101E8000EF93FF938091450190914601A091470106
:101E9000B09148010196A11DB11D80934501909319
:101EA0004601A0934701B09348019091440181E01D
:101EB0008927809344010E94890C6436710581054D
:101EC000910524F063E670E080E090E02091440109
:101ED00021110CC02AE030E040E050E00E944413A1
:101EE000FB01E95EFE4F808188B919C06A30710537
:101EF00081059105A4F02AE030E040E050E00E9426
:101F00004413CA01B9010E94CE100E9409110E9417
:101F10009610FB01E95EFE4F8081806888B9FF91D1
:101F2000EF91BF91AF919F918F917F916F915F9151
:101F30004F913F912F910F900FBE0F901F901895CA
:101F40005058BB27AA270E94B80F0C9460110E941A
:101F5000521138F00E94591120F039F49F3F19F4C2
:101F600026F40C944F110EF4E095E7FB0C9420112D
:101F7000E92F0E94711158F3BA176207730784079B
:101F8000950720F079F4A6F50C94AB110EF4E095CA
:101F90000B2EBA2FA02D0B01B90190010C01CA0123
:101FA000A0011124FF27591B99F0593F50F4503ECE
:101FB00068F11A16F040A22F232F342F4427585FC0
:101FC000F3CF469537952795A795F0405395C9F7D8
:101FD0007EF41F16BA0B620B730B840BBAF0915090
:101FE000A1F0FF0FBB1F661F771F881FC2F70EC02F
:101FF000BA0F621F731F841F48F487957795679502
:10200000B795F7959E3F08F0B0CF9395880F08F0ED
:102010009927EE0F9795879508950E94931190F058
:102020009F3748F4911116F40C94AC1160E070E005
:1020300080E89FE3089526F01B16611D711D811D28
:102040000C9426110C9441110E9438100C946011CC
:102050000E94591158F00E94521140F029F45F3F3C
:1020600029F00C94201151110C94AC110C944F11C7
:102070000E94711168F39923B1F3552391F3951BD5
:10208000550BBB27AA2762177307840738F09F5F99
:102090005F4F220F331F441FAA1FA9F335D00E2E06
:1020A0003AF0E0E832D091505040E695001CCAF773
:1020B0002BD0FE2F29D0660F771F881FBB1F261736
:1020C00037074807AB07B0E809F0BB0B802DBF010D
:1020D000FF2793585F4F3AF09E3F510578F00C94DC
:1020E00020110C94AC115F3FE4F3983ED4F3869535
:1020F00077956795B795F7959F5FC9F7880F911DFD
:102100009695879597F90895E1E0660F771F881FE8
:10211000BB1F621773078407BA0720F0621B730B9B
:10212000840BBA0BEE1F88F7E09508950E949D106E
:102130006894B1110C94AC1108950E94791188F043
:102140009F5798F0B92F9927B751B0F0E1F0660F7B
:10215000771F881F991F1AF0BA95C9F714C0B130BC
:1021600091F00E94AB11B1E008950C94AB11672F70
:10217000782F8827B85F39F0B93FCCF386957795EB
:102180006795B395D9F73EF49095809570956195D4
:102190007F4F8F4F9F4F0895E89409C097FB3EF4FF
:1021A00090958095709561957F4F8F4F9F4F9923A4
:1021B000A9F0F92F96E9BB279395F6958795779522
:1021C0006795B795F111F8CFFAF4BB0F11F460FFE2
:1021D0001BC06F5F7F4F8F4F9F4F16C0882311F03A
:1021E00096E911C0772321F09EE8872F762F05C04E
:1021F000662371F096E8862F70E060E02AF09A95E9
:10220000660F771F881FDAF7880F9695879597F9DD
:1022100008950E94931190F09F3748F4911116F0A1
:102220000C94AC1160E070E080E89FEB089526F418
:102230001B16611D711D811D0C9426110C944111FA
:1022400097F99F6780E870E060E00895882371F453
:10225000772321F09850872B762F07C0662311F43F
:1022600099270DC09051862B70E060E02AF09A9576
:10227000660F771F881FDAF7880F9695879597F96D
:1022800008959F3F31F0915020F487957795679599
:10229000B795880F911D9695879597F908959FEFAB
:1022A00080EC089500240A941616170618060906ED
:1022B000089500240A9412161306140605060895BC
:1022C000092E0394000C11F4882352F0BB0F40F444
:1022D000BF2B11F460FF04C06F5F7F4F8F4F9F4F84
:1022E000089557FD9058440F551F59F05F3F71F006
:1022F0004795880F97FB991F61F09F3F79F087956D
:102300000895121613061406551FF2CF4695F1DFF5
:1023100008C0161617061806991FF1CF8695710585
:102320006105089408950E947911A0F0BEE7B917DD
:1023300088F4BB279F3860F41616B11D672F782FDD
:102340008827985FF7CF869577956795B11D939508
:102350009639C8F30895E894BB2766277727CB0101
:1023600097F908950E94841208F48FEF08950E944F
:10237000C71129ED3BE54EED5EE30C940F1216F00C
:102380000C9441110C944F1168940C9420110E94EC
:102390007911A8F39923C1F3AEF3DF93CF931F9381
:1023A0000F93FF92C92FDD2788232AF02197660F0C
:1023B000771F881FDAF720E030E040E85FEB9FE30B
:1023C000883920F0803E38F021968F770E94A10F47
:1023D000ECE7F0E004C00E94A10FE9EAF0E00E94FF
:1023E000A8128B01BE01EC01FB2E6F577109759588
:1023F000771F880B990B0E94CE1028E132E741E34A
:102400005FE30E942212AF2D9801AE01FF900F9161
:102410001F91CF91DF910E94B80F0C9460110E9420
:1024200022120C9460110E94521138F00E9459112E
:1024300020F0952311F00C9420110C944F111124CD
:102440000C94AC110E94711170F3959FC1F3950F1C
:1024500050E0551F629FF001729FBB27F00DB11D28
:10246000639FAA27F00DB11DAA1F649F6627B00DB8
:10247000A11D661F829F2227B00DA11D621F739FA1
:10248000B00DA11D621F839FA00D611D221F749FAF
:102490003327A00D611D231F849F600D211D822FF6
:1024A000762F6A2F11249F5750409AF0F1F088231D
:1024B0004AF0EE0FFF1FBB1F661F771F881F91504A
:1024C0005040A9F79E3F510580F00C9420110C94C8
:1024D000AC115F3FE4F3983ED4F38695779567950A
:1024E000B795F795E7959F5FC1F7FE2B880F911D74
:1024F0009695879597F908959F930E94D1120F9012
:1025000007FCEE5F0C94FA12990F0008550FAA0B06
:10251000E0E8FEEF16161706E807F907C0F01216F6
:102520001306E407F50798F0621B730B840B950BF9
:1025300039F40A2661F0232B242B252B21F408954E
:102540000A2609F4A140A6958FEF811D811D0895EB
:10255000DF93CF931F930F93FF92EF92DF927B0154
:102560008C01689406C0DA2EEF010E942212FE014F
:10257000E894A5912591359145915591A6F3EF01E8
:102580000E94B80FFE019701A801DA9469F7DF9065
:10259000EF90FF900F911F91CF91DF9108950C94D0
:1025A0004F110E947911D8F3E894E0E0BB279F57C0
:1025B000F0F02AED3FE049EC06C0EE0FBB0F661FBE
:1025C000771F881F28F0B23A62077307840728F044
:1025D000B25A620B730B840BE3959A9572F78038AD
:1025E00030F49A95BB0F661F771F881FD2F790486B
:1025F0000C944311EF93E0FF07C0A2EA2AED3FE0FD
:1026000049EC5FEB0E94B80F0E9460110F90039499
:1026100001FC9058E6EDF0E00C940E139F938F931D
:102620007F936F93FF93EF939B01AC010E940F1276
:10263000EF91FF910E94A8122F913F914F915F91CE
:102640000C940F12A1E21A2EAA1BBB1BFD010DC098
:10265000AA1FBB1FEE1FFF1FA217B307E407F50752
:1026600020F0A21BB30BE40BF50B661F771F881F2E
:10267000991F1A9469F760957095809590959B01C4
:10268000AC01BD01CF010895052E97FB1EF4009407
:102690000E945B1357FD07D00E94221307FC03D052
:1026A0004EF40C945B1350954095309521953F4F17
:1026B0004F4F5F4F089590958095709561957F4F2E
:1026C0008F4F9F4F08958F929F92AF92BF92CF925C
:1026D000DF92EF92FF92CF93DF93EC0168817981D3
:1026E0008A819B81611571058105910521F464E260
:1026F00079ED8BE597E02DE133EF41E050E00E946A
:10270000441349015A019B01AC01A7EAB1E40E94BC
:1027100056176B017C01ACEEB4EFA50194010E9449
:102720006417DC01CB018C0D9D1DAE1DBF1DB7FFD5
:1027300003C00197A109B04888839983AA83BB830A
:102740009F77DF91CF91FF90EF90DF90CF90BF9078
:10275000AF909F908F9008950E946313089580E03A
:1027600091E00E9463130895A0E0B0E0809300011F
:1027700090930101A0930201B093030108958F92F9
:102780009F92AF92BF92CF92DF92EF92FF92CF9340
:10279000DF93EC01688179818A819B8161157105E4
:1027A0008105910521F464E279ED8BE597E02DE157
:1027B00033EF41E050E00E94441349015A019B016C
:1027C000AC01A7EAB1E40E9456176B017C01ACEEA4
:1027D000B4EFA50194010E946417DC01CB018C0DBC
:1027E0009D1DAE1DBF1DB7FF03C00197A109B048D5
:1027F00088839983AA83BB83BC01CD019F77DF9136
:10280000CF91FF90EF90DF90CF90BF90AF909F90CF
:102810008F9008958F929F92AF92BF92CF92DF9246
:10282000EF92FF9260910401709105018091060181
:1028300090910701611571058105910521F464E20C
:1028400079ED8BE597E02DE133EF41E050E00E9418
:10285000441349015A019B01AC01A7EAB1E40E946B
:1028600056176B017C01ACEEB4EFA50194010E94F8
:102870006417DC01CB018C0D9D1DAE1DBF1DB7FF84
:1028800003C00197A109B04880930401909305010A
:10289000A0930601B0930701BC01CD019F77FF9083
:1028A000EF90DF90CF90BF90AF909F908F90089562
:1028B00060930401709305018093060190930701D2
:1028C0000895CF93DF93EC012B8120FF33C026FFC7
:1028D0000AC02F7B2B838E819F8101969F838E83DD
:1028E0008A8190E029C022FF0FC0E881F9818081B0
:1028F000082E000C990B009719F420622B831AC044
:102900003196F983E8830EC0EA85FB85099597FF28
:1029100009C02B81019611F080E201C080E1822B79
:102920008B8308C02E813F812F5F3F4F3F832E83D3
:10293000992702C08FEF9FEFDF91CF910895A0E01C
:10294000B0E0E5EAF4E10C947717AE01495F5F4F20
:10295000DA016D917D91AD010EE912E0F8018281FD
:102960009381DC0113962C911397286013962C9376
:102970000E94C514D8011296ED91FC911397238102
:10298000277F2383E4E00C949317ABE0B0E0EBECFB
:10299000F4E10C9469176C017B018A01FC01178238
:1029A0001682838181FFCCC1CE0101963C01F601E4
:1029B0009381F70193FD859193FF81917F01882396
:1029C00009F4BAC1853239F493FD859193FF819161
:1029D0007F01853229F4B60190E00E94BC16E7CF52
:1029E000912C212C312CFFE1F315D8F08B3279F0AA
:1029F00038F4803279F08332A1F4232D20611DC098
:102A00008D3261F0803369F4232D216016C0832D4F
:102A10008260382EE32DE4603E2E2AC0F32DF8604C
:102A20001DC037FC2DC020ED280F2A3040F08E321B
:102A3000B9F436FC81C1232D2064322E19C036FE34
:102A400006C08AE0989E200D1124922E11C0EAE063
:102A50002E9E200D1124222EF32DF0623F2E08C051
:102A60008C3621F4832D8068382E02C0883641F4DC
:102A7000F70193FD859193FF81917F018111B3CF80
:102A8000982F9F7D9554933028F40C5F1F4F9FE340
:102A900099830DC0833631F0833771F0833509F0A7
:102AA00059C021C0F801808189830E5F1F4F88249F
:102AB0008394912C530113C02801F2E04F0E511C56
:102AC000F801A080B18036FE03C0692D70E002C01D
:102AD0006FEF7FEFC5010E94B1164C018201F32D0B
:102AE000FF773F2E16C0280122E0420E511CF8014C
:102AF000A080B18036FE03C0692D70E002C06FEF88
:102B00007FEFC5010E94A6164C01F32DF0683F2E01
:102B1000820133FC1BC0822D90E088169906B0F428
:102B2000B60180E290E00E94BC162A94F4CFF50131
:102B300037FC859137FE81915F01B60190E00E94DC
:102B4000BC1621102A9421E0821A91088114910464
:102B500071F7E8C0843611F0893641F5F80137FE87
:102B600007C060817181828193810C5F1F4F08C013
:102B700060817181072E000C880B990B0E5F1F4F2F
:102B8000F32DFF763F2E97FF09C0909580957095A5
:102B900061957F4F8F4F9F4FF0683F2E2AE030E0C6
:102BA000A3010E94F816882E861845C0853731F497
:102BB000232D2F7EB22E2AE030E025C0932D997F61
:102BC000B92E8F36C1F018F4883579F0B5C080374A
:102BD00019F0883721F0B0C0E92FE061BE2EB4FEB5
:102BE0000DC0FB2DF460BF2E09C034FE0AC0292F92
:102BF0002660B22E06C028E030E005C020E130E0BB
:102C000002C020E132E0F801B7FE07C060817181A7
:102C1000828193810C5F1F4F06C06081718180E0CB
:102C200090E00E5F1F4FA3010E94F816882E8618B1
:102C3000FB2DFF773F2E36FE0DC0232D2E7FA22EBB
:102C4000891458F434FE0BC032FC09C0832D8E7EEB
:102C5000A82E05C0B82CA32C03C0B82C01C0B92CD9
:102C6000A4FE0FC0FE01E80DF11D8081803321F428
:102C70009A2D997EA92E09C0A2FE06C0B394B394E2
:102C800004C08A2D867809F0B394A3FC11C0A0FE7D
:102C900006C0B21488F4280C922C9B180EC0B214F3
:102CA00060F4B60180E290E00E94BC16B394F7CFC6
:102CB000B21418F42B1802C0982C212CA4FE10C0BA
:102CC000B60180E390E00E94BC16A2FE17C0A1FCF2
:102CD00003C088E790E002C088E590E0B6010CC030
:102CE0008A2D867859F0A1FE02C08BE201C080E2F5
:102CF000A7FC8DE2B60190E00E94BC16891438F45E
:102D0000B60180E390E00E94BC169A94F7CF8A94B3
:102D1000F301E80DF11D8081B60190E00E94BC1620
:102D20008110F5CF222009F442CEB60180E290E076
:102D30000E94BC162A94F6CFF6018681978102C0C4
:102D40008FEF9FEF2B96E2E10C948517FC01059025
:102D5000615070400110D8F7809590958E0F9F1F9D
:102D60000895FC016150704001900110D8F78095E2
:102D700090958E0F9F1F08950F931F93CF93DF930E
:102D8000FB01238121FD03C08FEF9FEF2CC022FFA9
:102D900016C046815781248135814217530744F478
:102DA000A081B1819D012F5F3F4F318320838C93A0
:102DB000268137812F5F3F4F3783268314C08B01D5
:102DC000EC01FB010084F185E02D0995892BE1F6EA
:102DD000D80116968D919C911797019617969C9302
:102DE0008E931697CE01DF91CF911F910F91089589
:102DF000FA01AA27283051F1203181F1E8946F932C
:102E00006E7F6E5F7F4F8F4F9F4FAF4FB1E03ED0D1
:102E1000B4E03CD0670F781F891F9A1FA11D680F6F
:102E2000791F8A1F911DA11D6A0F711D811D911DA2
:102E3000A11D20D009F468943F912AE0269F112417
:102E40003019305D3193DEF6CF010895462F47707B
:102E5000405D4193B3E00FD0C9F7F6CF462F4F70D6
:102E6000405D4A3318F0495D31FD4052419302D034
:102E7000A9F7EACFB4E0A6959795879577956795DA
:102E8000BA95C9F700976105710508959B01AC01DA
:102E90000A2E06945795479537952795BA95C9F701
:102EA000620F731F841F951FA01D08950E94A01715
:102EB000A59F900DB49F900DA49F800D911D11248E
:102EC0000895B7FF0C9456170E945617821B930B58
:102ED00008952F923F924F925F926F927F928F92BE
:102EE0009F92AF92BF92CF92DF92EF92FF920F9399
:102EF0001F93CF93DF93CDB7DEB7CA1BDB0B0FB6A3
:102F0000F894DEBF0FBECDBF09942A88398848885F
:102F10005F846E847D848C849B84AA84B984C884F5
:102F2000DF80EE80FD800C811B81AA81B981CE0FEC
:102F3000D11D0FB6F894DEBF0FBECDBFED010895D1
:102F4000A29FB001B39FC001A39F700D811D1124EA
:102F5000911DB29F700D811D1124911D0895F8944B
:022F6000FFCFA1
:102F620001000000010000000F000000030000004B
:102F720000630D9B0D00003F065B4F666D7D077F72
:102F82006F41535445524F494453205334343739D7
:062F920032393235000067
:00000001FF
